:020000040800F2
:10000000B8060020B92C00088513000887130008E3
:100010008B1300088F1300089313000800000000E2
:10002000000000000000000000000000971300081E
:1000300099130008000000009B1300089D1300089E
:10004000D32C0008D32C0008D32C0008D32C000894
:10005000D32C0008D32C0008D32C0008D32C000884
:10006000D32C0008D32C0008D32C0008D32C000874
:10007000D32C0008D32C0008D32C0008D32C000864
:10008000D32C0008D32C0008D32C0008D32C000854
:10009000D32C0008D32C0008D32C0008C913000867
:1000A000D32C0008D32C0008D32C0008D32C000834
:1000B0009F130008D32C0008D32C0008D32C000871
:1000C000D32C0008D32C0008D32C0008D32C000814
:1000D000D32C0008D32C0008D32C0008D32C000804
:1000E000D32C0008D32C0008D32C0008D32C0008F4
:1000F000D32C0008D32C0008D32C0008D32C0008E4
:10010000D32C0008D32C0008D32C0008D32C0008D3
:10011000D32C0008D32C0008D32C0008D32C0008C3
:10012000D32C0008D32C0008D32C0008D32C0008B3
:1001300000F002F800F03AF80AA090E8000C8244BF
:100140008344AAF10107DA4501D100F02FF8AFF29C
:10015000090EBAE80F0013F0010F18BFFB1A43F0A5
:1001600001031847946C0000B46C0000103A24BFDF
:1001700078C878C1FAD8520724BF30C830C144BF0C
:1001800004680C607047000000230024002500264E
:10019000103A28BF78C1FBD8520728BF30C148BFEA
:1001A0000B6070471FB51FBD10B510BD04F030FBCC
:1001B0001146FFF7F7FF01F0A3F804F04EFB03B47C
:1001C000FFF7F2FF03BC04F051FB000070B50546D9
:1001D0000E4614463146284602F05DF8204601F0EE
:1001E000D9FF70BD2DE9F05F04460D4616461F4647
:1001F000301B401C1FFA80FA781B401C1FFA80FB42
:100200003B4632462946204602F01BF84FF00008D4
:100210000FE04FF0000906E00A9801F0BBFF09F17A
:1002200001001FFA80F9D145F6DB08F101001FFA41
:1002300080F8D845EDDBFE484088401E83B2FC487C
:100240000088401E82B20021084601F0FAFFBDE896
:10025000F09F2DE9FF4F85B081468A46002004902B
:1002600003900798A0EB09050898A0EB0A06CDF8C3
:100270000890CDF804A0002D01DD012705E00DB99F
:10028000002702E04FF0FF376D42002E02DD4FF0F5
:10029000010806E016B94FF0000802E04FF0FF3801
:1002A0007642B54201DD2C4600E034464FF0000BAB
:1002B00021E0019A91B2029A90B201F0F6FF0498FF
:1002C000284404900398304403900498A04205DD2C
:1002D0000498001B04900298384402900398A042AE
:1002E00005DD0398001B03900198404401900BF139
:1002F00001001FFA80FB601C8345DADD09B0BDE810
:10030000F08F2DE9F04104460D4616461F462B4658
:10031000324629462046FFF79CFF3B4622462946A7
:100320002046FFF796FF3B46324639462046FFF708
:1003300090FF3B46324629463046FFF78AFFBDE82C
:10034000F081F8B504460D4616461F46B9480088A8
:100350003B463246294600902046FFF743FFF8BD52
:100360002DE9F04104460D4616461F46DDF818807B
:10037000EA1991B2A21990B24246FFF727FFEA1993
:1003800091B2A21B90B24246FFF720FFEA1B91B246
:10039000A21990B24246FFF719FFEA1B91B2A21BC5
:1003A00090B24246FFF712FFAA1991B2E21990B239
:1003B0004246FFF70BFFAA1991B2E21B90B24246E8
:1003C000FFF704FFAA1B91B2E21990B24246FFF771
:1003D000FDFEAA1B91B2E21B90B24246FFF7F6FE69
:1003E000BDE8F0812DE9FF4F81B08246174698465F
:1003F000DDF838B0002445464FEA4800C0F1030656
:10040000BBF1000F1FD01BE0A14608E04B4622467F
:10041000009750460299FFF7A3FF09F10109A9458A
:10042000F4DD002E04DA042000FB0460861D06E0E3
:10043000601B042101FB006000F10A066D1E641CB4
:10044000AC42E1DD18E015E02B462246009750460D
:100450000299FFF785FF002E04DA042000FB0460F8
:10046000861D06E0601B042101FB006000F10A0606
:100470006D1E641CAC42E7DD05B0BDE8F08F2DE9D0
:10048000F04704460D4616461F46DDE908893B46FF
:10049000324629462046FFF7DCFE4B4642463946A7
:1004A0003046FFF7D6FE2B46224649464046FFF728
:1004B000D0FEBDE8F08702880B8803800A80704771
:1004C0002DE9FF4F85B000260027BDF81800BDF8C4
:1004D0002010884207DD08A906A8FFF7ECFF07A94E
:1004E00005A8FFF7E8FFBDF82000BDF84C108842D2
:1004F00007DD08A913A8FFF7DEFF07A912A8FFF779
:10050000DAFFBDF81800BDF82010884207DD08A901
:1005100006A8FFF7D0FF07A905A8FFF7CCFFBDF895
:100520001800BDF84C10884238D1BDF81400039073
:100530000490BDF81C00BDF81010884203DABDF825
:100540001C00049008E0BDF81C00BDF80C108842A7
:1005500002DDBDF81C000390BDF84800BDF8101086
:10056000884203DABDF84800049008E0BDF848006E
:10057000BDF80C10884202DDBDF8480003902D48FC
:1005800000880090BDF81830BDF80C201946BDF861
:100590001000FFF727FE09B0BDE8F08FBDF81C0082
:1005A000BDF81410A0EB010BBDF82000BDF8181029
:1005B000401A0290BDF84800BDF81410451ABDF865
:1005C0004C00BDF81810A0EB0109BDF84800BDF8BB
:1005D0001C10A0EB010ABDF84C00BDF82010401A19
:1005E0000190BDF82000BDF84C10884202D1BDF842
:1005F000208004E0BDF82000401E1FFA80F8BDF8FE
:1006000018402CE0029896FBF0F0BDF81410084456
:1006100080B2049097FBF9F0BDF81410084480B242
:1006200003905E442F44BDF81000BDF80C1003E0A9
:100630004400002026000020884203DD03A904A80E
:10064000FFF739FFFB48008823460090BDF80C20D7
:100650002146BDF81000FFF7C5FD601C84B244457B
:10066000D0DDBDF82000201A00FB0AF6BDF8180006
:10067000201A00FB05F727E0019896FBF0F0BDF883
:100680001C10084480B2049097FBF9F0BDF81410D8
:10069000084480B2039056442F44BDF81000BDF8C2
:1006A0000C10884203DD03A904A8FFF704FFE1480A
:1006B000008823460090BDF80C202146BDF81000AC
:1006C000FFF790FD601C84B2BDF84C008442D3DD7E
:1006D00000BF60E72DE9FF4F83B081468A4693460D
:1006E000DDE91064D34800880290A6F12000C6B26C
:1006F00004EBD47009EB6000401E82B20AEB0400E8
:10070000401E83B251464846019401F05AFD1298AA
:1007100050BB002525E00C2C07D106EB4600C6494E
:1007200001EB800010F8058004E0C44800EB0610DF
:1007300010F8058000270DE008F0010018B15846B8
:1007400001F013FD02E0069801F00FFD4FEA680882
:10075000781CC7B204EBD471B7EB610FECDB681CFB
:10076000C5B2A542D7DB2DE0002529E00C2C07D12E
:1007700006EB4600B04901EB800010F8058004E06C
:10078000AE4800EB061010F80580002711E0A948DC
:10079000A0F800B008F0010038B10AEB050291B2F0
:1007A00009EB070290B201F040FD4FEA6808781C9F
:1007B000C7B204EBD471B7EB610FE8DB681CC5B2BC
:1007C000A542D3DB9B49029808809D484088401E83
:1007D00083B29B480088401E82B20021084601F087
:1007E000F0FC07B0BDE8F08F2DE9FF4F83B08146E4
:1007F0008A469346DDE910648E4800880290A6F18F
:100800002000C6B204EBD47009EB6000401E82B237
:100810000AEB0400401E83B251464846019401F0A1
:1008200010FD129850BB002525E00C2C07D106EBDB
:100830004600814901EB800010F8058004E07F4804
:1008400000EB061010F8058000270DE008F001000D
:1008500018B1584601F09EFC02E0069801F09AFC9F
:100860004FEA6808781CC7B204EBD471B7EB610F8C
:10087000ECDB681CC5B2A542D7DB2DE0002529E0E2
:100880000C2C07D106EB46006B4901EB800010F8F9
:10089000058004E0694800EB061010F80580002789
:1008A00011E06448A0F800B008F0010038B10AEB8C
:1008B000050291B209EB070290B201F0F6FC4FEA93
:1008C0006808781CC7B204EBD471B7EB610FE8DBA2
:1008D000681CC5B2A542D3DB564902980880584827
:1008E0004088401E83B256480088401E82B20021D4
:1008F000084601F0A6FC07B0BDE8F08F2DE9FE43E5
:1009000006460F4615461C46DDF828801DE04C487B
:100910000088401EB04204DB49484088401EB8426F
:1009200001DABDE8FE8320788DE82101454803887F
:100930004048028839463046FFF756FF284605EB07
:10094000D07106EB61018EB2641C20787E2802DC37
:1009500020782028DBDA00BFE3E710B5024601204B
:1009600000E050430B1EA1F10104E1B2F9D110BD2A
:100970002DE9FF4F83B0074691461E46109C4FF06D
:10098000000A002543E0701B401EC1B20A20FFF799
:10099000E4FFB9FBF0F00A21B0FBF1F201FB120811
:1009A000BAF1000F1BD1701EA84218DDB8F1000F7C
:1009B00013D100202021A346CDE90014029004EBBE
:1009C000DB71491001FB057188B21E490B8819497A
:1009D0000A880499FFF708FF17E04FF0010A002189
:1009E00008F13000C0B2A346CDE90141009004EB0C
:1009F000DB71491001FB057188B212490B880D4962
:100A00000A880499FFF7F0FE00BF681CC5B2B54222
:100A1000B9DB07B0BDE8F08F2DE9FC5F05468846DD
:100A200091469A46DDF830B000953E2001900024B2
:100A30006AE00000260000207A480008EE4C00081A
:100A4000440000202800002004EB0410FC4911F8A9
:100A500010009BF80010884253D104EB0410F849B1
:100A600001EB400040789BF80110884249D108F121
:100A70000F0083B205F10F0082B24146284601F013
:100A8000A0FB00263BE0002734E00D9890B904EB72
:100A90000410EB4901EB4000801C805D802139414E
:100AA000084018B1484601F04BFB21E0504601F0E8
:100AB0005CFB1DE0E348A0F8009004EB0410E04963
:100AC00001EB4000801C805D80213941084018B155
:100AD0004146284601F0A9FB681C85B20098281AF7
:100AE000102805D1009D08F101001FFA80F803E0ED
:100AF000781CC7B2082FC8DB00BF701CC6B2202EFE
:100B0000C1DB00BF601C84B2019884429CDBCE48EC
:100B10004088401E83B2CC480088401E82B200212B
:100B2000084601F04EFBBDE8FC9F2DE9FC5F054641
:100B3000884691469A46DDF830B000953E200190F7
:100B400000245FE004EB0410BD4911F810009BF88D
:100B50000010884253D104EB0410B94901EB400066
:100B600040789BF80110884249D108F10F0083B208
:100B700005F10F0082B24146284601F062FB0026D3
:100B80003BE0002734E00D9890B904EB0410AC4929
:100B900001EB4000801C805D80213941084018B184
:100BA000484601F0F7FA21E0504601F0F3FA1DE063
:100BB000A448A0F8009004EB0410A14901EB400008
:100BC000801C805D80213941084018B1414628468B
:100BD00001F06BFB681C85B20098281A102805D11B
:100BE000009D08F101001FFA80F803E0781CC7B2ED
:100BF000082FC8DB00BF701CC6B2202EC1DB00BFAF
:100C0000601C84B2019884429CDB8F484088401E5F
:100C100083B28D480088401E82B20021084601F050
:100C200010FBBDE8FC9F2DE9FC5F05468846914618
:100C30009A46DDF830B0009507200190002467E067
:100C400004EB840000EB4410804911F810009BF87D
:100C50000010884259D104EB840000EB44107B491A
:100C600001EB400040789BF8011088424DD108F11B
:100C7000170083B205F1170082B24146284601F001
:100C8000A0FA00263FE0002738E00D98A0B904EB59
:100C9000840000EB44106D4901EB4000801C805D36
:100CA00080213941084018B1484601F05EFA23E03E
:100CB000504601F05AFA1FE06248A0F8009004EB99
:100CC000840000EB4410614901EB4000801C805D12
:100CD00080213941084018B14146284601F0A5FA63
:100CE000681C85B20098281A182805D1009D08F1C3
:100CF00001001FFA80F803E0781CC7B2082FC4DB9C
:100D000000BF701CC6B2482EBDDB00BF601C84B2A1
:100D10000198844294DB4C484088401E83B24A4884
:100D20000088401E82B20021084601F04AFABDE860
:100D3000FC9F2DE9FC5F0546884691469A46DDF802
:100D400030B0009507200190002467E004EB840098
:100D500000EB44103D4911F810009BF80010884248
:100D600059D104EB840000EB4410384901EB4000FA
:100D700040789BF8011088424DD108F1170083B2EA
:100D800005F1170082B24146284601F05AFA0026C2
:100D90003FE0002738E00D98A0B904EB840000EB99
:100DA00044102A4901EB4000801C805D80213941BC
:100DB000084018B1484601F0EDF923E0504601F033
:100DC000E9F91FE01F48A0F8009004EB840000EB55
:100DD00044101E4901EB4000801C805D8021394198
:100DE000084018B14146284601F05FFA681C85B2F8
:100DF0000098281A182805D1009D08F101001FFA53
:100E000080F803E0781CC7B2082FC4DB00BF701C59
:100E1000C6B2482EBDDB00BF601C84B2019884427C
:100E200094DB09484088401E83B207480088401E72
:100E300082B20021084601F004FABDE8FC9F0000E0
:100E4000DE52000826000020440000201A5B000843
:100E50002DE9FC5F0546884691469A46DDF830B09C
:100E600000950820019000245FE004EB8410FA490B
:100E700011F810009BF80010884253D104EB841045
:100E8000F54901EB400040789BF80110884249D1B8
:100E900008F11F0083B205F11F0082B241462846C7
:100EA00001F08FF900263BE0002734E00D9890B95F
:100EB00004EB8410E84901EB4000801C805D802138
:100EC0003941084018B1484601F04FF921E0504639
:100ED00001F04BF91DE0E148A0F8009004EB84100C
:100EE000DD4901EB4000801C805D802139410840D4
:100EF00018B14146284601F098F9681C85B200985F
:100F0000281A202805D1009D08F101001FFA80F859
:100F100003E0781CC7B2082FC8DB00BF701CC6B244
:100F2000802EC1DB00BF601C84B2019884429CDB30
:100F3000CB484088401E83B2C9480088401E82B218
:100F40000021084601F03DF9BDE8FC9F2DE9FC5F5A
:100F50000546884691469A46DDF830B0009508204F
:100F6000019000245FE004EB8410BB4911F81000ED
:100F70009BF80010884253D104EB8410B64901EB72
:100F8000400040789BF80110884249D108F11F00C9
:100F900083B205F11F0082B24146284601F051F9A3
:100FA00000263BE0002734E00D9890B904EB841054
:100FB000A94901EB4000801C805D80213941084037
:100FC00018B1484601F0E6F821E0504601F0E2F899
:100FD0001DE0A248A0F8009004EB84109E4901EBAC
:100FE0004000801C805D80213941084018B1414695
:100FF000284601F05AF9681C85B20098281A202862
:1010000005D1009D08F101001FFA80F803E0781C6B
:10101000C7B2082FC8DB00BF701CC6B2802EC1DB70
:1010200000BF601C84B2019884429CDB8C484088DD
:10103000401E83B28A480088401E82B200210846C2
:1010400001F0FFF8BDE8FC9F2DE9FF4F83B0064695
:1010500088469146DDE91147109DB2464FF0000BDE
:1010600071E0BBF1000F40D104EBD4717C4A1288CF
:10107000A2EB6101B14204DB79494988091B414572
:1010800002DA07B0BDE8F08F2878802802DD4FF043
:10109000010B58E028780D2806D108EB04001FFA50
:1010A00080F856466D1C1EE0102C0DDD10212878AE
:1010B0008DE883004A4641463046069BFFF70AFB0F
:1010C00006F1080086B20EE028788DE891004A46C5
:1010D00041463046069BFFF7FDFA204604EBD071EF
:1010E00006EB61018EB26D1C2DE05D480088001B8F
:1010F000B04204DB5A484088001B404500DAC0E794
:101100004FF0000B202C08D1CDE900574A4641464C
:101110003046069BFFF79CFE12E0182C08D1CDE963
:1011200000574A4641463046069BFFF702FE07E05D
:10113000CDE900574A4641463046069BFFF7F5FC8D
:10114000AD1C301986B2287800288AD100BF98E7F4
:101150002DE9FF4F83B0064688469146DDE91147E9
:10116000109DB2464FF0000B71E0BBF1000F40D173
:1011700004EBD4713A4A1288A2EB6101B14204DB5C
:1011800037494988091B414502DA07B0BDE8F08FAD
:101190002878802802DD4FF0010B58E028780D28D0
:1011A00006D108EB04001FFA80F856466D1C1EE0BD
:1011B000102C0DDD102128788DE883004A46414629
:1011C0003046069BFFF710FB06F1080086B20EE0E2
:1011D00028788DE891004A4641463046069BFFF745
:1011E00003FB204604EBD07106EB61018EB26D1C4F
:1011F0002DE01B480088001BB04204DB18484088E3
:10120000001B404500DAC0E74FF0000B202C08D14E
:10121000CDE900574A4641463046069BFFF796FE09
:1012200012E0182C08D1CDE900574A464146304615
:10123000069BFFF77EFD07E0CDE900574A46414691
:101240003046069BFFF771FCAD1C301986B228783A
:1012500000288AD100BF98E7205D00082600002002
:10126000440000202DE9FE4F0E4617469846DDE962
:101270000D9A0C9C204603F0A5FA85B21F490988F7
:10128000A1EBC50000EBD071C1F34F0B43463A46CA
:10129000314658468DE81006FFF75AFFBDE8FE8F2D
:1012A0002DE9F04706460F46154607F1270083B2A1
:1012B00006F1270082B23946304600F0C2FF002412
:1012C0000AE015F8149005EB440090F8018049EA13
:1012D000082000F05FFF641CB4F5C86FF1DB07481D
:1012E0004088401E83B205480088401E82B200211B
:1012F000084600F0A6FFBDE8F0870000440000208B
:1013000000F0FFF8482003F007FA01F02BFA322032
:1013100003F01CFA01F0C0F801F010FC01F043FCEE
:10132000002000F0CEFF322003F010FA002000F081
:10133000F2FF01F0BAFC1FE01048006841F288316A
:10134000884209D300200D49086000F0E4FF002125
:101350004FF0804002F002FF0948006841F28831F6
:10136000884209D300200649086000F0AAFF002146
:101370004FF0804002F0F2FEDEE7000000000020A7
:1013800004000020704700BFFEE700BFFEE700BF7B
:10139000FEE700BFFEE7704770477047704710B523
:1013A0000121880703F0A3F968B11B480068401CBD
:1013B0001949086019480068401C18490860012153
:1013C000880703F0A5F910BD10B5802002F07CFA63
:1013D00070B11348C06880F400501149C860012101
:1013E000880702F0BBFE00F0D3FC802002F07DFAFB
:1013F000402002F069FA70B10948C06880F40050DA
:101400000749C8600121880702F0A8FE00F0D9FC56
:10141000402002F06AFA10BD000000200400002005
:10142000001001400CB50020019000906C4800684D
:1014300040F480306A49086000BF6948006800F4E1
:10144000003000900198401C0190009818B9019854
:10145000B0F5A06FF1D16248006800F4003010B11F
:101460000120009001E0002000900098012843D165
:101470005C48006840F010005A490860084600685F
:1014800020F0030008600846006840F00200086091
:1014900053484068524948600846406848600846DA
:1014A000406840F4806048600846406820F47C1042
:1014B00048600846406840F4E81048600846006804
:1014C00040F08070086000BF4548006800F0007080
:1014D0000028F9D04248406820F0030040494860A5
:1014E0000846406840F00200486000BF3C48406841
:1014F00000F00C000828F9D10CBD10B5FFF792FFE1
:1015000010BD10B53648006840F00100344908604D
:101510000846406834490840314948600846006838
:10152000324908402E4908600846006820F48020AF
:1015300008600846406820F4FE0048604FF41F0031
:101540008860FFF7DAFF4FF000602949086010BD9E
:1015500010B5002100200022214B5B6803F00C0134
:1015600021B1042906D0082928D107E0214B224CBB
:10157000236027E01F4B204C236023E0184B5B685F
:1015800003F47010164B5B6803F48032022303EB04
:10159000904022B9194B4343174C23600DE0104B88
:1015A0005B6803F4003323B1144B4343124C2360B4
:1015B00003E0104B4343104C236003E00D4B0E4CF3
:1015C000236000BF00BF064B5B68C3F303130C4CE2
:1015D000E15C094B1B68CB40074C236010BD000049
:1015E00000100240002002400000FFF8FFFFF6FE5E
:1015F00008ED00E000127A000800002000093D001C
:101600000C0000203EB504464FF6FF7000F083FE4C
:101610001F200090FE480288142300210846FEF790
:10162000E1FD1F200090FA48438802884088143862
:1016300081B20020FEF7D6FD4FF6FF70F549088015
:10164000012010211F234FF6FF72CDE900410290C7
:1016500002210020FFF706FE01201021EEA2CDE9B5
:1016600000210290EA484088123881B21F234FF6C9
:10167000FF720020FFF7F6FD3EBD0EB5ECA0FFF7B0
:10168000C1FF01201021F0A21F23CDE9002102900B
:10169000DA021E210020FFF7E5FD01201021E6A25D
:1016A0001F23CDE900210290DA023C210020FFF740
:1016B000D9FD01201021E7A21F23CDE900210290CE
:1016C0004FF4FC625A210020FFF7CCFD01201021CD
:1016D000E6A21F23CDE9002102901A4678210020BE
:1016E000FFF7C0FD40F2DC5003F030F840F2DC5070
:1016F00003F02CF80EBD0EB54FF6FF700090C448F5
:101700004388028800210846FEF76CFD0120102165
:10171000DCA24FF6E073CDE9002102901F221E21CA
:101720001420FFF715FD4FF4487003F00FF84FF445
:1017300078400090B6484388028800210846FEF7AA
:1017400051FD01201021D1A24FF6E073CDE9002117
:1017500002901F221E211420FFF7FAFC4FF448705C
:1017600002F0F4FF4FF4FC600090A948438802881F
:1017700000210846FEF736FD01201021C5A24FF6D4
:10178000E073CDE9002102901F221E211420FFF7F3
:10179000DFFC4FF4487002F0D9FF1F2000909C48F6
:1017A0004388028800210846FEF71CFD0120102115
:1017B000BAA24FF6E073CDE9002102904FF47842CF
:1017C0001E211420FFF7C4FC4FF4487002F0BEFF46
:1017D0000EBD2DE9F8430024B2A0FFF713FF4FF62A
:1017E000FF7000908A484088143883B28848028885
:1017F00014210020FEF7F6FC00BF48E0AF4830F8A7
:10180000140084490880DFF808C2BCF8025005EBD8
:10181000D57C4FEA6C0CACF1500CC4EB0419CC44F1
:101820000CF13C0C1FFA8CF3DFF8E4C1BCF800604B
:1018300006EBD67C4FEA6C0CACF1500CC4EB0419EF
:10184000CC440CF13C0C1FFA8CF2DFF8C4C1BCF89C
:10185000027007EBD77C4FEA6C0CACF1500CC4EB78
:101860000419CC441FFA8CF1DFF8A4C1BCF8008045
:1018700008EBD87C4FEA6C0CACF1500CC4EB0419AB
:10188000CC441FFA8CF0FEF73CFD601CC4B2052C62
:10189000B4DB40F2DC5002F059FF4FF6FF700090CD
:1018A0005B484088143883B25948028814210020CC
:1018B000FEF798FC002448E0804830F814005549B1
:1018C0000880DFF84CC1BCF8026006EBD67C4FEA1A
:1018D0006C0CACF1500CC4EB0419CC440CF13C0C76
:1018E0001FFA8CF3DFF828C1BCF8007007EBD77C37
:1018F0004FEA6C0CACF1500CC4EB0419CC440CF165
:101900003C0C1FFA8CF2DFF808C1BCF8028008EB2F
:10191000D87C4FEA6C0CACF1500CC4EB0419CC44ED
:101920001FFA8CF1DFF8E8C0BCF8005005EBD57C5D
:101930004FEA6C0CACF1500CC4EB0419CC441FFA08
:101940008CF0FEF7FEFC601CC4B2052CB4DB40F248
:10195000DC5002F0FBFEBDE8F883F8B5002458A087
:10196000FFF750FE4FF6FF7000902948408814386A
:1019700083B22748028814210020FEF733FC00BF01
:101980001FE00020224B00905D8805EBD5735B10B3
:10199000323B04EBC40707EB0417D9191C4B1E8814
:1019A00006EBD6735B10503B04EBC40707EB041740
:1019B000D819424B33F814201E23FEF713FD601C88
:1019C000C4B2052CDDDB40F2DC5002F0BFFE4FF666
:1019D000FF7000900E484088143883B20C4802888B
:1019E00014210020FEF7FEFB002484E00120084BB8
:1019F00000905D8805EBD5735B10323B04EBC407A8
:101A000007EB0417D919024B1E8806EBD67363E067
:101A100044000020260000206B617973656E2E79EA
:101A2000616E6740666F786D61696C2E636F6D00E3
:101A3000D1B6C3FABFC6BCBCD7DBBACFB2E2CAD4F8
:101A4000B3CCD0F2000000004C69616E6748616F52
:101A500043616900322E382220494C4939333431F0
:101A60002032343058333230000000003133363603
:101A70003234363033323420323031392D30392D52
:101A800031390000424C20546573740052454420A3
:101A900000000000475245454E200000424C55458D
:101AA00020000000B2E2CAD4323A475549BED8D02D
:101AB000CECCEEB3E4B2E2CAD40000001C00002099
:101AC000B2E2CAD4333A475549BBADD4B2CCEEB337
:101AD000E4B2E2CAD40000005B10503B04EBC40740
:101AE00007EB0417D819E84B33F814201E23FEF730
:101AF00079FC601CC4B2052CFFF678AF40F2DC50D4
:101B000002F024FEF8BD0EB5E0A0FFF77BFD00203B
:101B10000C21E3A24FF6E073CDE9002102901F22D1
:101B20001E210A20FFF714FB01200C21E7A24FF62B
:101B3000E073CDE9002102901F222D210A20FFF73A
:101B400007FB00200C21ECA24FF6E073CDE9002149
:101B500002901F223C210A20FFF7FAFA00201021F0
:101B6000EDA24FF6E073CDE9002102901F22502133
:101B70000A20FFF7EDFA01201021F2A24FF6E073E0
:101B8000CDE9002102901F2264210A20FFF7E0FA2C
:101B900000201021F6A24FF6E073CDE9002102905B
:101BA0001F2278210A20FFF7D3FA4FF4966002F043
:101BB000CDFD0EBD2DE9FC5F0024F5A0FFF722FD51
:101BC0004FF6FF700090F9484088143883B2F74808
:101BD000028814210020FEF705FB00BF5DE0AA4843
:101BE00030F81400F2490880F048458805EBD570BC
:101BF00040101438C4EB0411084481B2EB48068845
:101C000006EBD6704010153804EB840200EB82001E
:101C100080B2DFF898C3CDE90001BCF8027007EB91
:101C2000D77C4FEA6C0CACF1490CC4EB041BDC44D0
:101C30001FFA8CF3DFF874C3BCF8008008EBD87C83
:101C40004FEA6C0CACF1330C04EB840B0CEB8B0CFB
:101C50001FFA8CF2DFF854C3BCF8029009EBD97C70
:101C60004FEA6C0CACF1140CC4EB041BDC441FFAFF
:101C70008CF1DFF838C3BCF800A00AEBDA7C4FEA3D
:101C80006C0CACF1500C04EB840B0CEB8B0C1FFABE
:101C90008CF0FEF7F4FB601CC4B2052C9FDB40F215
:101CA000DC5002F053FD4FF6FF700090BF484088B3
:101CB000143883B2BD48028814210020FEF792FA3E
:101CC00000245DE0704830F81400B9490880B74836
:101CD000458805EBD57040101438C4EB0411084456
:101CE00081B2B248068806EBD6704010153804EB76
:101CF000840200EB820080B2DFF8B0C2CDE90001BF
:101D0000BCF8027007EBD77C4FEA6C0CACF1490CC5
:101D1000C4EB041BDC441FFA8CF3DFF890C2BCF860
:101D2000008008EBD87C4FEA6C0CACF1330C04EB70
:101D3000840B0CEB8B0C1FFA8CF2DFF870C2BCF832
:101D4000029009EBD97C4FEA6C0CACF1140CC4EB9B
:101D5000041BDC441FFA8CF1DFF850C2BCF800A071
:101D60000AEBDA7C4FEA6C0CACF1500C04EB840B00
:101D70000CEB8B0C1FFA8CF0FEF7A2FB601CC4B2BC
:101D8000052C9FDB40F2DC5002F0E0FCBDE8FC9F3C
:101D90000EB5032000F034FB002000F092FA012081
:101DA000202184A24FF6E073CDE9002102901F228A
:101DB00064210A20FFF748F94FF4966002F0C6FC50
:101DC0000EBD0EB5032000F08DFC002000F0A3FA3C
:101DD000012020217DA24FF6E073CDE90021029081
:101DE0001F2264210A20FFF7B3F94FF4966002F036
:101DF000ADFC0EBD0EB57BA0FFF704FC7E4A1E2194
:101E00000846FFF74DFA012010217CA24FF6E0733F
:101E1000CDE9002102901F224B212A20FFF798F9DB
:101E2000754A1E215A20FFF73BFA0120102173A2A8
:101E30004FF6E073CDE9002102901F224B2166206E
:101E4000FFF786F96C4A1E219620FFF729FA012038
:101E500010216AA24FF6E073CDE9002102901F2203
:101E60004B21A220FFF774F94FF4966002F06EFC4C
:101E70000EBD10B588B00024614B0FCBCDE9062311
:101E8000CDE9040100BFE1E01C000020B2E2CAD4A9
:101E9000353AD3A2CEC4CFD4CABEB2E2CAD400006F
:101EA000365831323A6162636465666768696A6BA5
:101EB0006C6D6E6F707172737475767778797A3035
:101EC0003132333435363738390000003658313244
:101ED0003A4142434445464748494A4B4C4D4E4F90
:101EE000505152535455565758595A303132333451
:101EF0003536373839000000365831323A7E2140C5
:101F00002324255E262A28295F2B7B7D3A3C3E3FF1
:101F10002F7C2D2B2E000000385831363A61626339
:101F20006465666768696A6B6C6D6E6F70717273F9
:101F30007475767778797A3031323334353637388C
:101F400039000000385831363A414243444546474B
:101F500048494A4B4C4D4E4F505152535455565789
:101F600058595A3031323334353637383900000059
:101F7000385831363A7E21402324255E262A2829E6
:101F80005F2B7B7D3A3C3E3F2F7C2D2B2E000000AB
:101F9000B2E2CAD4343A47554920547269616E6737
:101FA0006C65CCEEB3E4B2E2CAD400004400002079
:101FB000260000205042372D3031BDBBB2E6C2B7FB
:101FC000BFDAD7A2D2E2B0B2C8AB00005042362D81
:101FD0003032BDBBB2E6C2B7BFDAD7A2D2E2B0B2EE
:101FE000C8AB0000B2E2CAD4373ACDBCC6ACCFD43D
:101FF000CABEB2E2CAD400003061000844590000F1
:10200000B06D0008204600F06DFB14A0FFF7FAFA4F
:102010000121102204A850F824004FF6E073CDE906
:10202000012100901F221E211420FFF791F8104A71
:1020300032211E20FFF734F94FF47A7002F086FB4C
:102040004FF47A7002F082FB601CC4B2042CD9DB1E
:10205000002000F047FB08B010BD0000B2E2CAD477
:10206000383AC6C1C4BBD0FDD7AAB2E2CAD4000078
:102070003061000810B504460820FA4908600420C1
:1020800008602146F84800F09BFC0820F549091F2C
:10209000086010BD10B504464FF40060F3490860B5
:1020A000401008602146F24800F08AFC4FF40060BE
:1020B000EE49091F086010BD10B504460820E94923
:1020C00008600420091F08602146E74800F078FCFA
:1020D0000820E449091F086010BD10B504464FF4FC
:1020E0000060E24908604010091F08602146E0488E
:1020F00000F066FC4FF40060DC49091F086010BD69
:1021000070B505460C462846FFF7B4FFE0B2FFF76E
:10211000D3FF70BD70B505460C462846FFF7BAFFE1
:10212000E0B2FFF7DAFF70BD10B5D249087AFFF7C9
:10213000B1FF10BD10B5CF49087AFFF79BFF10BD66
:1021400010B504460820C74908600420091F08602C
:102150002112C54800F034FCE1B2C34800F030FC65
:102160000820C049091F086010BD10B504460820AA
:10217000BC4908600420091F08602112BA4800F019
:102180001FFCE1B2B84800F01BFC0820B549091F4C
:10219000086010BD10B504464FF40060B3490860F4
:1021A0004010091F08602112B14800F009FCE1B29B
:1021B000AF4800F005FC4FF40060AC49091F08600F
:1021C00010BD2DE9F04104460D4616461F46A949AB
:1021D000887AFFF74FFF2012FFF76EFFE0B2FFF79C
:1021E0006BFF3012FFF768FFF0B2FFF765FFA14900
:1021F000087BFFF73FFF2812FFF75EFFE8B2FFF70B
:102200005BFF3812FFF758FFF8B2FFF755FFFFF7F3
:1022100091FFBDE8F08170B504460D462B4622467D
:1022200029462046FFF7CDFF70BD70B504460D4628
:1022300029462046FFF7EFFF8F480088FFF795FFFC
:1022400070BD2DE9F04104460D4616461F468949EA
:10225000887AFFF71FFF2012FFF73FFFE0B2FFF77A
:102260003CFF3012FFF739FFF0B2FFF736FF81492C
:10227000087BFFF70FFF2812FFF72FFFE8B2FFF7E9
:102280002CFF3812FFF729FFF8B2FFF726FFFFF700
:102290004BFFBDE8F08170B504460D462B46224643
:1022A00029462046FFF7CDFF70BD70B504460D46A8
:1022B00029462046FFF7EFFF6F480088FFF76AFFC7
:1022C00070BD70B506466B484088401E83B26948B1
:1022D0000088401E82B200210846FFF772FF0820E6
:1022E000604908600420091F086000240AE00025F6
:1022F00003E03046FFF724FF6D1C5E480088A842CB
:10230000F7D8641C5B484088A042F0D808205549A3
:10231000091F086070BD70B5064656484088401ECB
:1023200083B254480088401E82B200210846FFF75D
:1023300088FF4FF400604D4908604010091F086095
:1023400000240AE0002503E03046FFF723FF6D1C60
:1023500048480088A842F7D8641C46484088A042F4
:10236000F0D84FF400604149091F086070BD08B5FE
:102370000121042001F04AF81E20ADF800000320DE
:102380008DF8020010208DF8030069463548143896
:1023900000F080FD08BD08B50121082001F036F8E5
:1023A0004FF4F050ADF8000003208DF8020010202B
:1023B0008DF8030069462D48143800F06BFD08BD08
:1023C00010B5102027490860642002F0BFF91020E2
:1023D0002449091F0860322002F0B8F910BD10B579
:1023E0004FF4805021490860642002F0AFF94FF4A7
:1023F00080501E49091F0860322002F0A7F910BD65
:1024000010B504462A201B4948812B2088812C20A6
:10241000088134B1012C0FD0022C18D0032C38D1F4
:102420002CE0F020134908804FF4A0704880082168
:102430003620FFF765FE2DE04FF4A0700D490880AF
:10244000F020488068213620FFF75AFE22E0F02075
:10245000084908804FF4A0704880C8213620FFF753
:102460004FFE17E01408014000300140140C0140F9
:102470000038004044000020260000204FF4A070E7
:10248000FE490880F0204880A8213620FFF738FE5A
:1024900000E000BF00BF10BD10B500F0B5FAFFF7B7
:1024A00066FFFFF78DFFCF20FFF7E4FD0020FFF769
:1024B00003FED920FFF700FE3020FFF7FDFDED20E1
:1024C000FFF7D8FD6420FFF7F7FD0320FFF7F4FDC9
:1024D0001220FFF7F1FD8120FFF7EEFDE820FFF766
:1024E000C9FD8520FFF7E8FD1020FFF7E5FD7A2004
:1024F000FFF7E2FDCB20FFF7BDFD3920FFF7DCFD44
:102500002C20FFF7D9FD0020FFF7D6FD3420FFF780
:10251000D3FD0220FFF7D0FDF720FFF7ABFD202011
:10252000FFF7CAFDEA20FFF7A5FD0020FFF7C4FD75
:102530000020FFF7C1FDC020FFF79CFD1B20FFF727
:10254000BBFDC120FFF796FD1220FFF7B5FDC520AA
:10255000FFF790FD0820FFF7AFFD2620FFF7ACFD49
:10256000C720FFF787FDB720FFF7A6FD3620FFF74E
:1025700081FD0820FFF7A0FD3A20FFF77BFD5520E5
:10258000FFF79AFDB120FFF775FD0020FFF794FDDE
:102590001A20FFF791FDB620FFF76CFD0A20FFF728
:1025A0008BFDA220FFF788FDF220FFF763FD0020DE
:1025B000FFF782FD2620FFF75DFD0120FFF77CFD80
:1025C000E020FFF757FD0F20FFF776FD1D20FFF7F6
:1025D00073FD1A20FFF770FD0A20FFF76DFD0D2037
:1025E000FFF76AFD0720FFF767FD4920FFF764FD4D
:1025F0006620FFF761FD3B20FFF75EFD0720FFF738
:102600005BFD1120FFF758FD0120FFF755FD092064
:10261000FFF752FD0520FFF74FFD0420FFF74CFDAB
:10262000E120FFF727FD0020FFF746FD1820FFF708
:1026300043FD1D20FFF740FD0220FFF73DFD0F2069
:10264000FFF73AFD0420FFF737FD3620FFF734FD92
:102650001320FFF731FD4C20FFF72EFD0720FFF779
:102660002BFD1320FFF728FD0F20FFF725FD2E205F
:10267000FFF722FD2F20FFF71FFD0520FFF71CFDB0
:102680002B20FFF7F7FC0020FFF716FD0020FFF7D7
:1026900013FD0120FFF710FD3F20FFF70DFD2A205D
:1026A000FFF7E8FC0020FFF707FD0020FFF704FD1F
:1026B0000020FFF701FDEF20FFF7FEFC1120FFF7E0
:1026C000D9FC782002F042F82920FFF7D3FC002043
:1026D000FFF796FE01206A4908604FF6FF70FFF78A
:1026E000F0FD10BD10B504462A20644948812B2016
:1026F00088812C20088134B1012C0FD0022C18D0F5
:10270000032C2CD120E0F0205C4908804FF4A0700D
:10271000488008213620FFF7FDFC21E04FF4A0702F
:1027200056490880F020488068213620FFF7F2FCE7
:1027300016E0F020514908804FF4A0704880C8216D
:102740003620FFF7E7FC0BE04FF4A0704B49088000
:10275000F0204880A8213620FFF7DCFC00E000BF15
:1027600000BF10BD10B500F097F9FFF714FEFFF79A
:1027700036FECF20FFF78EFC0020FFF7AEFCD920FD
:10278000FFF7ABFC3020FFF7A8FCED20FFF782FC41
:102790006420FFF7A2FC0320FFF79FFC1220FFF745
:1027A0009CFC8120FFF799FCE820FFF773FC852053
:1027B000FFF793FC1020FFF790FC7A20FFF78DFCC9
:1027C000CB20FFF767FC3920FFF787FC2C20FFF7B1
:1027D00084FC0020FFF781FC3420FFF77EFC022000
:1027E000FFF77BFCF720FFF755FC2020FFF775FC77
:1027F000EA20FFF74FFC0020FFF76FFC0020FFF7F7
:102800006CFCC020FFF746FC1B20FFF766FCC120D4
:10281000FFF740FC1220FFF760FCC520FFF73AFCF1
:102820000820FFF75AFC2620FFF757FCC720FFF7C8
:1028300031FCB720FFF751FC3620FFF72BFC0820B6
:10284000FFF74BFC3A20FFF725FC5520FFF745FC2E
:10285000B120FFF71FFC0020FFF73FFC1A20FFF715
:102860003CFCB620FFF716FC0A20FFF736FCA2203E
:10287000FFF733FCF220FFF70DFC03E044000020DB
:10288000840121420020FFF728FC2620FFF702FCEC
:102890000120FFF722FCE020FFF7FCFB0F20FFF7F1
:1028A0001CFC1D20FFF719FC1A20FFF716FC0A205C
:1028B000FFF713FC0D20FFF710FC0720FFF70DFCBE
:1028C0004920FFF70AFC6620FFF707FC3B20FFF7D3
:1028D00004FC0720FFF701FC1120FFF7FEFB01209D
:1028E000FFF7FBFB0920FFF7F8FB0520FFF7F5FBDF
:1028F0000420FFF7F2FBE120FFF7CCFB0020FFF7FD
:10290000ECFB1820FFF7E9FB1D20FFF7E6FB022098
:10291000FFF7E3FB0F20FFF7E0FB0420FFF7DDFBF1
:102920003620FFF7DAFB1320FFF7D7FB4C20FFF729
:10293000D4FB0720FFF7D1FB1320FFF7CEFB0F20BE
:10294000FFF7CBFB2E20FFF7C8FB2F20FFF7C5FBBF
:102950000520FFF7C2FB2B20FFF79CFB0020FFF7B1
:10296000BCFB0020FFF7B9FB0120FFF7B6FB3F20BF
:10297000FFF7B3FB2A20FFF78DFB0020FFF7ADFB2D
:102980000020FFF7AAFB0020FFF7A7FBEF20FFF7CF
:10299000A4FB1120FFF77EFB782001F0D7FE292051
:1029A000FFF778FB0020FFF79DFE01200349086038
:1029B0004FF6FF70FFF7AFFC10BD0000A48121426D
:1029C000024600BF108900F002000028FAD0918171
:1029D00000BF108900F001000028FAD09089C0B231
:1029E000704702884FF6C7731A400280012902D14E
:1029F0000288028003E0028842F0200202800288FE
:102A000042F040020280704700B587B001210520E6
:102A100000F0FCFCA020ADF8040003208DF80600B7
:102A200018208DF8070001A9404800F033FA402033
:102A3000ADF8040048208DF8070003208DF806004B
:102A400001A93A4800F026FA0121080300F0DEFC53
:102A50000020ADF808004FF48270ADF80A000020A5
:102A6000ADF80C00ADF80E00ADF810004FF400709A
:102A7000ADF812000020ADF81400ADF816000720E4
:102A8000ADF8180002A92A4800F04AFD01212848A3
:102A900000F0EBFD07B000BD00B587B001210920B3
:102AA00000F0B4FC4FF42040ADF8040003208DF892
:102AB000060018208DF8070001A91E4800F0EAF969
:102AC0004FF48040ADF8040048208DF80700032043
:102AD0008DF8060001A9174800F0DCF901218803F0
:102AE00000F0A1FC0020ADF808004FF48270ADF8B2
:102AF0000A000020ADF80C00ADF80E00ADF8100093
:102B00004FF40070ADF812000020ADF81400ADF8DD
:102B100016000720ADF8180002A9074800F000FDD4
:102B20000121054800F0A1FD07B000BD00080140EB
:102B300000300140000C01400038004008B5012180
:102B4000102000F063FC4FF40050ADF8000010209E
:102B50008DF8030003208DF802006946044800F058
:102B600099F94FF40051024800F041FA08BD000005
:102B70000010014008B54FF4C06000F0BDF8172008
:102B80008DF8000001208DF801008DF802008DF80D
:102B90000300684600F0B5F817208DF8000068467D
:102BA00000F0AFF808BD0EB50121092000F02EFCA1
:102BB0000121092000F02AFCFFF7DCFF8020ADF89E
:102BC000080004208DF80B0002A9194800F062F9F2
:102BD0000721012000F074FA8020009000208DF879
:102BE000040008208DF8050001208DF806006846D5
:102BF00000F004FE4020ADF8080004208DF80B0022
:102C000002A90B4800F046F90621012000F058FA0D
:102C10004020009000208DF804000C208DF8050065
:102C200001208DF80600684600F0E8FD0EBD0000AA
:102C3000000C014008B54FF4E06000F05DF81C2086
:102C40008DF8000000208DF8010003208DF80200AF
:102C500001208DF80300684600F053F808BD0EB55A
:102C60000121084600F0DFFB40F2E730ADF8040038
:102C70004720ADF800000020ADF80600ADF80200D6
:102C80008DF8080069464FF0804000F00BFF0121ED
:102C9000880701F029FD01221146900701F079FA19
:102CA0000121880701F05AFA0EBD10B5FFF7C2FFE7
:102CB000FFF7D5FF10BD00000948804709480047CD
:102CC000FEE7FEE7FEE7FEE7FEE7FEE7FEE7FEE7DC
:102CD000FEE7FEE704480549054A064B7047000039
:102CE0000315000831010008B8000020B8060020D4
:102CF000B8020020B802002031490143314A116076
:102D0000704770B5002100230F22C47804B32D4C06
:102D1000246804F4E064C4F5E064210AC1F104030A
:102D2000CA40447804FA03F184781440214309012D
:102D3000254C0678A155047804F01F050124AC4009
:102D400005786D11AD0005F1E025C5F8004109E0F9
:102D5000047804F01F050124AC401C4D0678761160
:102D600045F8264070BD1A4A0A400243154B1B1F06
:102D70001A60704739B1134A121D12680243114B91
:102D80001B1D1A6006E00F4A121D126882430D4B8C
:102D90001B1D1A607047042808D14FF0E021096913
:102DA00041F004014FF0E022116107E04FF0E02113
:102DB000096921F004014FF0E02211617047000021
:102DC0000000FA050CED00E000E400E080E100E026
:102DD00080FFFF1F10B50446CC48844208D1012172
:102DE000042000F02DFB0021042000F029FB46E028
:102DF000C748844208D10121082000F021FB0021AE
:102E0000082000F01DFB3AE0C248844208D10121AD
:102E1000102000F015FB0021102000F011FB2EE027
:102E2000BD48844208D10121202000F009FB002187
:102E3000202000F005FB22E0B848844208D101219F
:102E4000402000F0FDFA0021402000F0F9FA16E0E1
:102E5000B348844208D10121802000F0F1FA00211A
:102E6000802000F0EDFA0AE0AE48844207D101214B
:102E7000801500F0E5FA0021A01500F0E1FA10BD80
:102E800010B50121084600F0DBFA0021012000F016
:102E9000D7FA10BD2DE9F04102460025002600209A
:102EA00000230024002791F803C00CF00F0591F8CF
:102EB00003C00CF0100CBCF1000F03D091F802C05D
:102EC0004CEA050591F800C0BCF1000F31D0146840
:102ED00000202BE04FF0010C0CFA00F3B1F800C019
:102EE0000CEA03069E4220D183004FF00F0C0CFA2F
:102EF00003F7BC4305FA03FC4CEA040491F803C051
:102F0000BCF1280F06D14FF0010C0CFA00FCC2F8FE
:102F100014C00AE091F803C0BCF1480F05D14FF08E
:102F2000010C0CFA00FCC2F810C0401C0828D1D3D8
:102F30001460B1F800C0BCF1FF0F34DD546800200C
:102F40002EE000F1080C4FF0010808FA0CF3B1F87C
:102F500000C00CEA03069E4221D183004FF00F0C03
:102F60000CFA03F7BC4305FA03FC4CEA040491F89D
:102F700003C0BCF1280F05D100F1080C08FA0CF8C9
:102F8000C2F8148091F803C0BCF1480F07D100F1DA
:102F9000080C4FF0010808FA0CF8C2F81080401C29
:102FA0000828CED35460BDE8F0814FF6FF71018050
:102FB000022181700421C17070470246002093688D
:102FC0000B400BB1012000E00020704701468868EB
:102FD00080B2704702460020D3680B400BB101203D
:102FE00000E0002070470146C86880B27047016168
:102FF0007047416170470AB1016100E0416170476B
:10300000C16070474FF480320A43826181618261FE
:1030100082698269704702460020434B18684FF668
:103020008073184040EA021008433F4B1860704715
:103030003E49C8617047F0B50A46002300240021CC
:10304000002500F00046B6F1004F02D1364EF1697E
:1030500001E0354E7168C0F3034583B200F44016B9
:10306000B6F5401F08D121F070612F4E766826F02A
:1030700070662D4F7E6012E000F48016B6F5801F5A
:1030800006D1032606FA05F4A14341F0706106E07B
:10309000460D360103FA06F6B14341F0706122B1E4
:1030A000460D360103FA06F6314300F00046B6F14C
:1030B000004F02D11C4EF16101E01B4E7160F0BD6A
:1030C00030B500228B071C0F0F2303FA04F2164BB6
:1030D00008338C1053F824309343134C08348D106C
:1030E00044F8253023468C1053F824308C07240FE5
:1030F00000FA04F423430C4C08348D1044F82530B6
:1031000030BD0A49DC31086070470000000801400A
:10311000000C014000100140001401400018014063
:10312000001C01400020014000000140000020423E
:10313000DF48006840F00100DD490860084640684B
:10314000DC490840DA49486008460068DA49084026
:10315000D74908600846006820F4802008600846C7
:10316000406820F4FE0048604FF41F0088607047FC
:10317000CF49096821F48031CD4A116011460968B0
:1031800021F480211160B0F5803F03D0B0F5802F8D
:103190000ED106E0C649096841F48031C44A116085
:1031A00007E0C349096841F4A021C14A116000E069
:1031B00000BF00BF704710B5014600220023002069
:1031C0004A11012A02D1BA4C236806E0022A02D130
:1031D000B74C236A01E0B64C636A01F01F02012478
:1031E00094401C400CB1012000E0002010BD38B517
:1031F000002000900024002500BF3120FFF7DBFFF6
:1032000005460098401C00900098B0F5A06F01D0D2
:10321000002DF2D03120FFF7CEFF08B1012400E0ED
:103220000024204638BD01460020A14A106820F045
:10323000F80040EAC10010607047A049086070477C
:10324000024600209A4B586820F47C1042EA0103A1
:103250001843974B58607047984908667047014675
:103260000020934A506820F00300084350607047E4
:103270008F48406800F00C007047014600208C4ADF
:10328000506820F0F000084350607047014600206D
:10329000874A506820F4E060084350607047014658
:1032A0000020834A506820F4605040EAC10050601A
:1032B000704729B17E4A527A02437D4B5A7204E02C
:1032C0007B4A527A82437A4B5A7270477B49D83193
:1032D0000860704701460020754A506820F440405D
:1032E0000843506070470021714A20321170704AC3
:1032F00082F82010012802D004280AD104E001211C
:103300006B4A2032117005E00521694A20321170A4
:1033100000E000BF00BF704769490860704764491A
:10332000096A0143624A116270476549443908607D
:10333000704730B500210022002400235C4D6D68E9
:1033400005F00C0121B1042905D0082923D105E09D
:103350005C4D056022E05B4D05601FE0544D6D68DB
:1033600005F47012524D6D6805F48034022505EBAA
:1033700092421CB9544D554305600BE04C4D6D68AD
:1033800005F400351DB1504D5543056002E04D4D2B
:103390005543056002E04B4D056000BF00BF444D42
:1033A0006D6805F0F0010909484D6B5C0568DD406A
:1033B00045603F4D6D6805F4E061090A434D6B5C63
:1033C0004568DD4085603A4D6D6805F46051C90A75
:1033D0003E4D6B5C4568DD40C560354D6D6805F45C
:1033E0004041890B3A4D6B5CC568B5FBF3F505614F
:1033F00030BD29B12E4A526902432D4B5A6104E077
:103400002B4A526982432A4B5A61704729B1284A94
:1034100092690243264B9A6104E0254A92698243ED
:10342000234B9A61704729B1214AD2690243204B4C
:10343000DA6104E01E4AD26982431D4BDA617047AB
:1034400029B11B4AD2680243194BDA6004E0184ADA
:10345000D2688243164BDA60704729B1144A126968
:103460000243134B1A6104E0114A12698243104B64
:103470001A61704712494039086070470F49C864A3
:1034800070470B49C87170470948406A40F0807026
:1034900007494862704701460020054A92680A4081
:1034A0000AB1012000E0002070470149887270478E
:1034B000001002400000FFF8FFFFF6FE000042424D
:1034C0008004424200127A0000093D002C000020D6
:1034D0003C00002010B50446BE48844208D10121BA
:1034E0008014FFF7ADFF0021A014FFF7A9FF16E03D
:1034F000B948844208D101210014FFF7AEFF002132
:103500002014FFF7AAFF0AE0B448844207D1012142
:10351000C013FFF7A2FF0021E013FFF79EFF10BDCD
:1035200010B50022028802F441520B884C882343D4
:103530008C882343CC8823430C8923434C89234321
:103540008C892343CC8923431A430280838B4FF217
:10355000FF74234083830B8A038210BD2DE9F04F53
:1035600085B005460C464FF0000902274FF00008D1
:103570004FF0010B0026B246A88B4FF240010840E5
:10358000A88302202884B5F81C90A068022801D1E5
:1035900000BF38E0A08810B94FF0010B01E04FF0F8
:1035A000020B8D48854200D100E000BF6846FFF75E
:1035B000C0FEDDF800A0E088B0F5007F0AD14FEA38
:1035C0001A2000EB80004000A168B0FBF1F0401D24
:1035D00086B20BE04FEA4B10BAFBF0F000EB800034
:1035E0004000A168B0FBF1F0401D86B20A20B6FB96
:1035F000F0F606F00108A6EB0800C0F34F074FF6FF
:10360000FF7000EA0828022F01DBFF2F02DD0227EE
:103610004FF00008E08840EA080038432884A0887A
:10362000A1890843618808432188084340F4006069
:1036300040EA0909A5F81C9005B0BDE8F08F00210B
:10364000018041808180C180018141818181C1816E
:103650000721018270470021018041808180C18063
:103660000221816000218181704721B1028842F0EE
:103670004002028004E002884FF6BF731A400280C5
:10368000704721B1828B42F48062828304E0828B96
:103690004FF6FF331A408283704730B50024002371
:1036A0000C110125A540ABB21AB185881D43858058
:1036B00002E085889D43858030BD1AB183880B4325
:1036C000838002E083888B438380704781817047C9
:1036D0000146888970474FF6FF62914204D0028804
:1036E00042F48072028004E002884FF6FF631A40C1
:1036F0000280704721B1828842F00402828004E097
:1037000082884FF6FB731A408280704702884FF21E
:10371000FF731A40028002880A43028070470188C2
:1037200041F480510180704721B1028842F4005277
:10373000028004E002884DF6FF731A400280704751
:1037400002460020012901D0108B00E0908A7047CA
:103750000146088A7047B1F5804F04D1028842F4CF
:103760008042028004E002884BF6FF731A40028018
:1037700070470246002013890B400BB1012000E086
:1037800000207047CA4302817047F0B5024600200E
:1037900000240023002501F00F070126BE40B4B22B
:1037A0000B1101269E40B3B2968806EA03051689DE
:1037B000264016B10DB1012000E00020F0BD10B58B
:1037C000002201F00F040123A3409AB2D3430381E6
:1037D00010BD00000030014000380040003C0040B7
:1037E000002044490860091D0860091D0860091D82
:1037F000086041483F4914310860704700213D4945
:103800008279002A3AD00A46126803689A430B4626
:103810001A600A1D126803689A430B1D1A60027928
:1038200011440A6803681A430A60324A083212686F
:1038300003689A432F4B08331A601A1D12680368F5
:103840009A432C4B0C331A604279102A0ED11A1F5E
:10385000126803681A43274B08331A601A1D12684E
:1038600003681A43234B0C331A600DE02149427957
:1038700011440A6803681A430A6005E0027911449A
:103880000A6803689A430A60704700210160017169
:103890000C2141710021817170471649103109686E
:1038A0000143144A10321160704701460020114A4A
:1038B000143212680A400AB1012000E0002070476B
:1038C0000C49143108607047014600200022094B62
:1038D0001B6803EA0102074B14331B680B4013B14A
:1038E0000AB1012000E0002070470249143108604D
:1038F0007047000000040140FFFF0F0010B50446B0
:10390000FE48844208D10121C014FFF799FD00212F
:10391000E014FFF795FDC4E0B4F1804F08D1012118
:103920000846FFF79AFD00210120FFF796FDB8E059
:10393000F348844208D101210220FFF78EFD0021C7
:103940000220FFF78AFDACE0EE48844208D1012155
:103950000420FFF782FD00210420FFF77EFDA0E098
:10396000E948844208D101210820FFF776FD0021B3
:103970000820FFF772FD94E0E448844208D1012159
:103980001020FFF76AFD00211020FFF766FD88E098
:10399000DF48844208D101212020FFF75EFD00218D
:1039A0002020FFF75AFD7CE0DA48844208D101214B
:1039B0004014FFF745FD00216014FFF741FD70E062
:1039C000D548844209D10121C804FFF739FD0021FF
:1039D0004FF40020FFF734FD63E0D048844209D162
:1039E00001210805FFF72CFD00214FF48010FFF79F
:1039F00027FD56E0CA48844209D101214805FFF756
:103A00001FFD00214FF40010FFF71AFD49E0C548E3
:103A1000844208D101214020FFF71FFD00214020F2
:103A2000FFF71BFD3DE0C048844208D10121802002
:103A3000FFF713FD00218020FFF70FFD31E0BB48A9
:103A4000844208D101218015FFF707FD0021A01550
:103A5000FFF703FD25E0B648844209D1012108049F
:103A6000FFF7EEFC00214FF48030FFF7E9FC18E08F
:103A7000B048844209D101214804FFF7E1FC00214C
:103A80004FF40030FFF7DCFC0BE0AB48844208D178
:103A900001218804FFF7D4FC00214FF48020FFF7B8
:103AA000CFFC10BD00220288944B98420ED0994B57
:103AB00098420BD0B0F1804F08D0914B984205D07E
:103AC000904B984202D0904B984204D14FF68F739E
:103AD0001A404B881A438D4B984207D08C4B984222
:103AE00004D04FF6FF431A40CB881A4302808B88DC
:103AF00083850B880385814B98420BD0854B984278
:103B000008D08B4B984205D08A4B984202D08A4B02
:103B1000984201D10B7A038601238382704770B5E6
:103B2000002400220023058C4FF6FE7635400584E4
:103B3000028C8388048B4FF68F752C40B51E2C4069
:103B40000D882C43751E2A400D892A434D882A432F
:103B50006A4DA8420BD06F4DA84208D0744DA842C0
:103B600005D0744DA84202D0734DA84213D14FF630
:103B7000F7752A404D892A434FF6FB752A408D88F8
:103B80002A434FF6FF652B404FF6FF552B408D899A
:103B90002B43CD892B4383800483CD888586028483
:103BA00070BD70B5002400220023058C4FF6EF761F
:103BB00035400584028C8388048B48F6FF752C40C1
:103BC0004FF6FF452C400D884FF6FF7606EA052597
:103BD0002C434FF6DF752A400D8906EA05152A4366
:103BE0004D8806EA05152A43444DA84202D0494DA6
:103BF000A8421DD14FF67F752A404D894FF6FF76BA
:103C000006EA05152A434FF6BF752A408D8806EA55
:103C100005152A434FF6FF352B404FF2FF752B4019
:103C20008D8906EA85052B43CD8906EA85052B4358
:103C300083800483CD880587028470BD70B500241D
:103C400000220023058C4FF6FF6635400584028C68
:103C50008388848B4FF68F752C404FF6FC752C4073
:103C60000D882C434FF6FF552A400D894FF6FF76FD
:103C700006EA05252A434D8806EA05252A431F4DF5
:103C8000A84202D0234DA8421DD14FF2FF752A4011
:103C90004D894FF6FF7606EA05252A434FF6FF3594
:103CA0002A408D8806EA05252A434EF6FF752B40EB
:103CB0004DF6FF752B408D8906EA05152B43CD89FE
:103CC00006EA05152B4383808483CD88858702848B
:103CD00070BD70B5002200230024058C4EF6FF76DF
:103CE00035400584038C8488828B48F6FF752A4012
:103CF0004FF6FF452A400D8820E00000002C0140CF
:103D00000004004000080040000C0040001000408B
:103D10000014004000340140004C014000500140BC
:103D20000054014000180040001C004000200040EA
:103D30000040014000440140004801404FF6FF763A
:103D400006EA05252A434DF6FF752B400D8906EA44
:103D500005352B434D8806EA05352B43FA4DA8421D
:103D600002D0FA4DA84208D14BF6FF752C408D8940
:103D70004FF6FF7606EA85152C4384808283CD8832
:103D8000A0F84050038470BD828B4FF2FF331A407D
:103D90008283828B4FF6FF7303EA01231A438283E7
:103DA0007047F0B50C461546002200210026078C0E
:103DB0004EF6FF7C07EA0C070784828B018C4FF6D6
:103DC000FF7707EA043640F6FF473A404FF6FF77A1
:103DD00007EA05273A434FF6FF7707EA03373A43E6
:103DE000D94FB8420ED0D94FB8420BD0B0F1804F66
:103DF00008D0D74FB84205D0D64FB84202D0D64FE0
:103E0000B84206D14DF6FF77394046F48057394322
:103E100005E047F6FF57394044F480573943828321
:103E20000184F0BD828B4FF6F3731A408283828B3C
:103E30000A4382837047F0B50C46154600220021E4
:103E40000026078C4FF6FF6C07EA0C070784828B6D
:103E5000018C4FF6FF7707EA04264FF60C773A40BD
:103E60004FF6FF7707EA03172F433A43B64FB8429E
:103E70000ED0B64FB8420BD0B0F1804F08D0B44F3F
:103E8000B84205D0B34FB84202D0B34FB84206D1C2
:103E90004FF6FF57394046F48077394305E04FF23B
:103EA000FF57394044F48077394382830184F0BD61
:103EB000028B4FF2FF331A400283028B4FF6FF73DF
:103EC00003EA01231A4302837047F0B50C461546F6
:103ED000002200210026078C4FF6EF7C07EA0C0732
:103EE0000784028B018C4FF6FF7707EA041640F631
:103EF000FF473A404FF6FF7707EA03373A434FF65A
:103F0000FF7707EA05273A438F4FB8420ED08F4F0D
:103F1000B8420BD0B0F1804F08D08D4FB84205D0D9
:103F20008C4FB84202D08C4FB84206D14FF6DF77A3
:103F3000394046F01007394305E04FF65F773940C6
:103F400044F01007394302830184F0BD028B4FF621
:103F5000F3731A400283028B0A4302837047F0B561
:103F60000C46154600220021068C4FF6FE773E4097
:103F70000684028B018C4FF60C7632407E1C06EADA
:103F800003162E433243704EB0420ED06F4EB042F5
:103F90000BD0B0F1804F08D06D4EB04205D06D4EC1
:103FA000B04202D06C4EB04206D14FF6FD763140A1
:103FB00044F00106314305E04FF6F576314044F018
:103FC0000106314302830184F0BD70B505460C46FD
:103FD0005D4885420ED05D4885420BD0B5F1804FDB
:103FE00008D05B48854205D05A48854202D05A48DD
:103FF000854200D100E000BF208850B92389A28803
:1040000061882846FFF7ABFFE1882846FFF79EFF4F
:1040100025E0208804280AD12389A28861882846BF
:10402000FFF753FFE1882846FFF742FF17E020889B
:1040300008280AD12389A28861882846FFF7FBFE59
:10404000E1882846FFF7EEFE09E02389A28861880F
:104050002846FFF7A6FEE1882846FFF795FE70BDCB
:104060002DE9F04105460C4600260127608808B975
:10407000022600E00026A088012801D1022700E0E6
:1040800001272088A0B92389A28861882846FFF7E4
:1040900066FFE1882846FFF759FF23893A463146F3
:1040A0002846FFF712FFE1882846FFF701FF13E0DB
:1040B0002389A28861882846FFF707FFE188284600
:1040C000FFF7F6FE23893A4631462846FFF747FFB9
:1040D000E1882846FFF73AFFBDE8F0810A884B885F
:1040E0001A438B881A43CB881A430B891A434B898E
:1040F0001A438B891A43A0F8442070474FF6FF718A
:10410000818000210180C1804180017270470021BF
:10411000018041808180C180018141818181C18193
:104120007047002101804180012181800021C180F0
:10413000018170470021018041808180C18001811F
:104140004181818170470000002C01400034014012
:104150000004004000080040000C004021B102882B
:1041600042F00102028004E002884FF6FE731A401A
:104170000280704731B1B0F8442042F40042A0F808
:10418000442005E0B0F84420C2F30E02A0F8442019
:1041900070471AB183890B43838102E083898B4383
:1041A000838170478182704741EA0203A0F848305A
:1041B00070471AB183890B43838102E083898B4363
:1041C0008381704701894FF6F87211400181704771
:1041D0000A46002101894FF68F731940114301816E
:1041E000704730B504460D4629462046FFF7F0FFDC
:1041F000208940F00700208130BD2DE9F0410446C0
:104200000D4616461F46602D06D13B46012231461B
:104210002046FFF75AFE05E03B4601223146204684
:10422000FFF79DFE29462046FFF7D2FF208940F088
:1042300007002081BDE8F08130B50C4600210189DE
:10424000C9B24FF6FF7505EA0325154325432943F7
:10425000018130BD2DE9F04105460E4617469846CE
:10426000002443463A4631462846FFF7E5FF2C89AD
:104270004FF6F870044044F007044FF68F70044086
:1042800044F070042C81BDE8F081F0B504460D4681
:1042900016461F463B46324629462046FFF7CCFFCE
:1042A000208940F480402081F0BD018582827047E2
:1042B0000A46002101884FF68F731940114301808F
:1042C0007047F0B50C4615461E460021002200231B
:1042D0000189028B038C4FF6F877394021434FF662
:1042E000FC473A4040F201173A434FF6DD773B4036
:1042F0004FF6FF7707EA06172F433B4301810283FE
:104300000384F0BD0A460021018B4FF68F731940DC
:104310001143018370470A460021018B48F6FF7361
:1043200019404FF6FF7303EA0223194301837047D4
:104330000A460021818B4FF68F7319401143818308
:1043400070470A460021818B48F6FF7319404FF6EB
:10435000FF7303EA022319438183704721B1028866
:1043600042F08002028004E002884FF67F731A4018
:104370000280704721B1828842F00402828004E00A
:1043800082884FF6FB731A408280704721B1828881
:1043900042F00802828004E082884FF6F7731A40E8
:1043A0008280704721B1828842F00102828004E05D
:1043B00082884FF6FE731A40828070470A460021B9
:1043C000018B4FF6F77319401143018370470A467A
:1043D0000021018B4FF2FF7319404FF6FF7303EA80
:1043E00002231943018370470A460021818B4FF64F
:1043F000F77319401143818370470A460021818B6E
:104400004FF2FF7319404FF6FF7303EA022319437B
:10441000818370470A460021018B4FF6FB731940D8
:104420001143018370470A460021018B4FF6FF3389
:1044300019404FF6FF7303EA0223194301837047C3
:104440000A460021818B4FF6FB731940114381838B
:1044500070470A460021818B4FF6FF3319404FF613
:10446000FF7303EA02231943818370470A46002140
:10447000018B4FF67F7319401143018370470A4641
:104480000021018BC1F30E014FF6FF7303EA0223F3
:104490001943018370470A460021818B4FF67F73D1
:1044A00019401143818370470A460021818BC1F373
:1044B0000E014FF6FF7303EA02231943818370470D
:1044C0000A460021018C4FF6FD7319401143018407
:1044D00070470A460021018C4FF6F77319401143CB
:1044E000018470470A460021018C4FF6DF731940A2
:1044F0004FF6FF7303EA02131943018470470A461B
:104500000021018C4FF67F7319404FF6FF7303EAC9
:1045100002131943018470470A460021018C4FF6AB
:10452000FF5319404FF6FF7303EA02231943018436
:1045300070470A460021018C4FF2FF7319404FF675
:10454000FF7303EA02231943018470470A460021DE
:10455000018C4DF6FF7319404FF6FF7303EA0233E7
:1045600019430184704730B5002301248C40A3B265
:10457000048C9C430484048C02FA01F5ADB22C43F4
:10458000048430BD30B5002304248C40A3B2048CD5
:104590009C430484048C02FA01F5ADB22C430484DC
:1045A00030BD70B5034600200024184618300125A0
:1045B0008D40ACB21D8CA5431D8409B1082909D1D9
:1045C00000EB6100056825F070050560056815437E
:1045D00005600EE00D1FC5F34E052844056825F45F
:1045E000E045056005684FF6FF7606EA022635438A
:1045F000056070BD21B1028842F00202028004E031
:1046000002884FF6FD731A400280704721B102887C
:1046100042F00402028004E002884FF6FB731A4065
:104620000280704721B1828842F08002828004E0DB
:1046300082884FF67F731A408280704702884FF657
:10464000F7731A40028002880A430280704782880A
:104650004FF68F731A40828082880A4382807047A7
:1046600002894FF6F8731A40028102890A430281D7
:10467000704702894FF67F731A40028102890A430C
:1046800002817047818470478185704781867047B9
:104690000187704781877047A0F8401070470288F3
:1046A0004FF6FF431A40028002880A430280704797
:1046B0000146888E70470146088F70470146888FF3
:1046C00070470146B1F8400070470146888C70473A
:1046D0000146088D704702460020138A0B400BB13B
:1046E000012000E000207047CA430282704730B5C5
:1046F0000246002000230024158A05EA010395895B
:1047000005EA010413B10CB1012000E0002030BD26
:10471000CA4302827047000010B504466FF00400DF
:10472000FEF739FBE11704EB5171C1F3C701234ACE
:1047300011701046007800EB4001C1EBC0104FF63D
:10474000FF7101EAC0001E49088010BD01461C4AE5
:1047500012884A434FF0E0235A6100229A610122F5
:104760001A6100BF4FF0E022106900F001021AB197
:1047700000F48032002AF5D000224FF0E0231A61C5
:104780009A61704701460D4A12784A434FF0E02380
:104790005A6100229A6101221A6100BF4FF0E022A3
:1047A000106900F001021AB100F48032002AF5D03D
:1047B00000224FF0E0231A619A6170474000002008
:1047C0004200002010B5431C02E010F8011B71B13B
:1047D0008107FAD14FF0013202C88C1A8C4314EAD7
:1047E000C211F9D0C01A0A0603D0C01E10BDC01AEB
:1047F00010BD0A0401D0801E10BD0902FCD0401E6D
:1048000010BD704770477047004870475400002043
:104810007546FFF7F9FFAE4605006946534620F09E
:104820000700854618B020B5FEF754FABDE82040D1
:104830004FF000064FF000074FF000084FF0000B5C
:1048400021F00701AC46ACE8C009ACE8C009ACE80F
:10485000C009ACE8C0098D46704710B50446AFF3F7
:1048600000802046BDE81040FBF7A9BC0149182094
:10487000ABBEFEE72600020070470000000000000B
:10488000000000000000000004040404040400040C
:10489000000000140A0A00000000000000000000F0
:1048A00014143F140A3F0A0A000000041E150506EE
:1048B0000C14150F0400000012150D0A142C2A12F6
:1048C00000000000040A0A1E151509360000000247
:1048D000020100000000000000000020100808088D
:1048E0000808081020000002040808080808080446
:1048F000020000000004150E0E1504000000000068
:104900000404041F04040400000000000000000070
:1049100000000002020100000000001F0000000073
:104920000000000000000000000000020000001075
:104930000808080404020202010000000E1111110F
:104940001111110E00000000040604040404040EFA
:10495000000000000E1111080402011F00000000F9
:104960000E11100C1010110E00000000080C0A0AA5
:10497000091E0818000000001F01010F1010110E81
:10498000000000000E09010F1111110E00000000BF
:104990001F09080404040404000000000E11110E95
:1049A0001111110E000000000E1111111E10120E37
:1049B00000000000000004000000000400000000EF
:1049C000000000040000000404000020100804029D
:1049D000040810200000000000001F00001F00005D
:1049E000000000020408102010080402000000006B
:1049F0000E11110804040004000000000E11191526
:104A0000151D011E0000000004040C0A0A1E1233CA
:104A1000000000000F12120E1212120F0000000010
:104A20001E1101010101110E000000000F121212EF
:104A30001212120F000000001F120A0E0A02121FAB
:104A4000000000001F120A0E0A0202070000000008
:104A50001C1201013911120C000000003312121E49
:104A600012121233000000001F0404040404041F87
:104A7000000000003E0808080808080907000000B8
:104A800037120A060A0A1237000000000702020263
:104A90000202223F000000001B1B1B1B15151515F1
:104AA000000000003B1216161A1A12170000000030
:104AB0000E1111111111110E000000000F12120E33
:104AC00002020207000000000E1111111117190E49
:104AD000180000000F12120E0A1212370000000018
:104AE0001E1101060810110F000000001F1504041C
:104AF0000404040E00000000331212121212120CF1
:104B0000000000003312120A0A0C04040000000026
:104B10001515150E0A0A0A0A000000001B0A0A04ED
:104B2000040A0A1B000000001B0A0A040404040E05
:104B3000000000001F0908040402121F0000001CEE
:104B400004040404040404041C000002020204041B
:104B5000080808100000000E0808080808080808DF
:104B60000E0000040A000000000000000000000029
:104B70000000000000000000003F000400000000F2
:104B800000000000000000000000000C121C123C9D
:104B9000000000000302020E1212120E00000000BC
:104BA0000000001C1202021C000000001810101C63
:104BB0001212123C000000000000000C121E021C29
:104BC000000000003804041E0404041E000000005D
:104BD0000000003C120C021E221C00000302020E08
:104BE0001212123700000000040000060404040E34
:104BF000000000000800000C080808080807000072
:104C00000302023A0A0E12370000000007040404EF
:104C10000404041F000000000000000F1515151506
:104C2000000000000000000F121212370000000008
:104C30000000000C1212120C000000000000000F17
:104C40001212120E020700000000001C1212121CA9
:104C5000103800000000001B0602020700000000E0
:104C60000000001E020C101E000000000004040ED4
:104C700004040418000000000000001B1212123C83
:104C80000000000000000037120A0C0400000000C1
:104C900000000015150E0A0A000000000000001BAD
:104CA0000A040A1B0000000000000037120A0C046E
:104CB000040300000000001E0804041E0000001889
:104CC0000808080408080808180008080808080860
:104CD000080808080808000604040408040404047A
:104CE000060002251800000000000000000000007F
:104CF00000000000000000000000000000000000B4
:104D000000080808080808080000181800000048F3
:104D10006C241200000000000000000000000000F1
:104D2000002424247F1212127F12121200000000AD
:104D3000081C2A2A0A0C1828282A2A1C08080000FD
:104D40000022251515152A5854545422000000003D
:104D5000000C1212120A76252911916E000000062D
:104D600006040300000000000000000000000040F6
:104D70002010100808080808081010204000000241
:104D80000408081010101010100808040200000099
:104D9000000008086B1C1C6B0808000000000000E5
:104DA0000000080808087F08080808000000000044
:104DB00000000000000000000000060604030000E0
:104DC000000000000000FE000000000000000000E5
:104DD00000000000000000000000060600000000C7
:104DE0008040402020101008080404020200000047
:104DF000001824424242424242422418000000006D
:104E000000080E08080808080808083E000000000E
:104E1000003C4242422020100804427E0000000074
:104E2000003C4242201820404042221C000000006A
:104E300000203028242422227E2020780000000038
:104E4000007E0202021A26404042221C000000009E
:104E500000382402021A26424242241800000000B0
:104E6000007E222210100808080808080000000030
:104E7000003C4242422418244242423C00000000CE
:104E800000182442424264584040241C00000000A4
:104E900000000000181800000000181800000000B2
:104EA00000000000000800000000000808040000E6
:104EB00000402010080402040810204000000000F8
:104EC000000000007F0000007F00000000000000E4
:104ED0000002040810204020100804020000000016
:104EE000003C42424640201010001818000000000C
:104EF000001C225A555555552D42221C0000000019
:104F0000000808181414243C224242E70000000064
:104F1000001F2222221E22424242221F00000000C5
:104F2000007C4242010101010142221C00000000FC
:104F3000001F2242424242424242221F0000000021
:104F4000003F4212121E12120242423F00000000B5
:104F5000003F4212121E121202020207000000005D
:104F6000003C2222010101712122221C00000000CC
:104F700000E7424242427E42424242E700000000D5
:104F8000003E0808080808080808083E000000005D
:104F9000007C10101010101010101010110F0000D5
:104FA000007722120A0E0A12122222770000000055
:104FB00000070202020202020202427F0000000019
:104FC0000077363636362A2A2A2A2A6B0000000055
:104FD00000E346464A4A52525262624700000000CD
:104FE000001C2241414141414141221C000000007E
:104FF000003F424242423E0202020207000000001D
:10500000001C2241414141414D53321C60000000CF
:10501000003F4242423E1212222242C700000000DC
:10502000007C4242020418204042423E0000000040
:10503000007F4908080808080808081C000000004C
:1050400000E74242424242424242423C00000000EB
:1050500000E742422224241414180808000000002B
:10506000006B49494949555536222222000000006B
:1050700000E7422424181818242442E70000000006
:1050800000772222141408080808081C00000000F9
:10509000007E2120101008040442423F00000078E6
:1050A0000808080808080808080808087800000028
:1050B0000202040408080810102020204040001EAE
:1050C0001010101010101010101010101E000038CA
:1050D000440000000000000000000000000000008C
:1050E00000000000000000000000000000FF0006BB
:1050F00008000000000000000000000000000000A8
:1051000000000000003C4278444242FC00000000E5
:1051100000030202021A26424242261A0000000040
:105120000000000000384402020244380000000081
:105130000060404040784442424264D80000000091
:1051400000000000003C427E0202423C00000000E1
:1051500000F08808087E08080808083E00000000E3
:1051600000000000007C22221C023C42423C000065
:1051700000030202023A4642424242E700000000B7
:10518000000C0C00000E08080808083E0000000093
:10519000003030000038202020202020221E000077
:1051A000000302020272120A1612227700000000A7
:1051B000000E0808080808080808083E000000005B
:1051C00000000000007F9292929292B700000000CF
:1051D00000000000003B4642424242E7000000005F
:1051E00000000000003C42424242423C00000000FD
:1051F00000000000001B26424242221E020700005F
:1052000000000000007844424242447840E0000040
:105210000000000000774C040404041F000000009C
:1052200000000000007C42023C40423E00000000C2
:1052300000000008083E08080808083000000000C8
:105240000000000000634242424262DC00000000B5
:105250000000000000E742242414080800000000B9
:105260000000000000EB49495555222200000000D3
:1052700000000000007624181818246E00000000BA
:105280000000000000E7422424141808080700006A
:1052900000000000007E22100808447E000000C0CC
:1052A000202020202010202020202020C0001010AE
:1052B0001010101010101010101010101010000608
:1052C00008080808081008080808080806000C3232
:1052D000C200000000000000000000000000B9E370
:1052E0000100008000803FFC200020002000200002
:1052F000200020002000200020004000400080000E
:10530000D6DD1004108410841084108454A45294A8
:10531000529490841084108410842084208440044B
:105320008004CAD00200010000007FFC01000100DF
:1053300001003FF821082108210821082128211017
:1053400001000100D1B6000027F01110111001106A
:105350000110F11017D01110111011101112150AAF
:10536000190A11060102C3FA104010403CFC210446
:105370004288BC5010201040FC8011FC1284108424
:105380001484188410FC0084D0C5084008200BFE4B
:105390001000100031FC3000500091FC1000100093
:1053A00011FC1104110411FC1104CFA20100020030
:1053B0001FF010101FF010101FF010101FF0101031
:1053C000010008844892481287F00000BFC6081008
:1053D0001D10F09010901010FD10109038903410A7
:1053E000501E53F090101010101010101010BCBC74
:1053F00010201020102013FEFC201020102015FC7F
:1054000018843088D048105010201050518826063B
:10541000D3D002000200FFFE040004000FF00810C9
:1054200018102FF0481088100FF0081008100850BE
:105430000820CFDE00007BF84A08520853F86208C3
:1054400052084BF84A444A486A3052204210428877
:1054500043064200B9AB0080048004800840084045
:10546000102020104208820604000440082010206A
:105470003FF010100000CBBE00003FF8000800080D
:105480007FE8000800081F8810881088108810889E
:105490001F88108800280010BBB600800080FC80A8
:1054A00004FC050449082A401440104028A024A008
:1054B00045108110020804040802D3AD00002080CA
:1054C000133C122402240224F2241224122412B4C3
:1054D000132812201020282047FE0000C4FA0900DB
:1054E000090011FC320454489950114812441444E4
:1054F0001140108002005104511290120FF0B4BFFD
:1055000000000020102013FE202026244A247A24A4
:105510001224222423FC7C20002204227822003C36
:10552000C9AB0000000004000FF0102020207FFC19
:1055300020842084208420843FF820002002200240
:105540001FFECCEE00000000204023FE204079FC2E
:10555000220423FC220423FC220423FC3A0465FADF
:1055600001980204B3E40000010001007FFE022064
:105570000410040808043FFC0442044004400442B0
:1055800008421042607EBED800000000207E3E80AF
:105590004880488048FE48827F8208820C8214FA44
:1055A00012842280218040FED0CE000000007F8443
:1055B0002208223022C0220222047FC8223022C2C6
:1055C00022022204220822304040BBAD000000002D
:1055D0007FFE00000FF011101110111051125FF238
:1055E0005112511251124FF240027FFCD4B200000E
:1055F00000007FFE47E24812481247E24FF2501285
:1056000050125112511242924472580A3FFCCDBCC2
:10561000000000003FFE440247F24C2253624082E9
:1056200043625E1A41824062430240C240223FFC14
:10563000C6AC000000402040204020403FFE20003B
:10564000200020003FE020102010201020104010EB
:105650004010CFD4000000003FFC200420043FFC99
:10566000200420041FF824441448144814480C5003
:1056700004407FFECABE000000003FFC00000000A6
:1056800000007FFE00800890088810881084208425
:10569000208240820780B2CB0000002008207FFEDD
:1056A000002000783F881108089009207FFE0180C3
:1056B00003400D30310C4002B5A500000010081069
:1056C00004203FF8210421043FFC210421043FF879
:1056D00001007FFE010001000100D6D000000100A2
:1056E000010001003FFC21042104210421042104C4
:1056F00021043FFC0100010001000100D3A20000D1
:10570000000008207FFE0820092001003FF8210842
:10571000210821081FF4014002200C10700ECEC495
:1057200000000100010000803F7C081008100410F8
:105730000420022002400180018002601C18E00663
:10574000D7DB00000000102011FE2202220249FCDB
:105750005800300013FE2528792401240D247222DC
:1057600002A2BACF000000000180024004301808F5
:1057700060061FF800001FF8200420042004200405
:1057800020041FF8C1C10000010001007FFE0000DD
:105790003FF820083FF83FF8400647C24824082059
:1057A00008221022603EB6C80000000000803FFEC4
:1057B00044105FFC4410441043F040005FF844087C
:1057C000423041C04360BC1EB2E20000000067C22C
:1057D000145205520552C552255205520552155212
:1057E0001752228222424442483ECAD4000000009E
:1057F0002014101417FE00120010601013F0109007
:1058000010901090149214EA1F0A0006B3CC000006
:10581000000019FE7202120212027DFC18001BFE2B
:105820003420502053FE10201020102013FED0F200
:105830000000000000803FFE400047FC420841306D
:1058400040C05FFE404240424044404840404440E7
:10585000B5F70000000023FE122202FA0222E22223
:1058600012FE1272128A128A128A16BA1A42120290
:10587000040EB9E200000100010411080908091032
:1058800009207FFE044004400440044008420842CE
:105890001042607CB0E60000000048FE490049006C
:1058A00049007EFE418241447944452845284510FF
:1058B000452846440382C8A800001000100013FCCD
:1058C0007D04110419041884348850485050102065
:1058D0001050108813041402CBF9000000003F7C24
:1058E000204020403E40227E2244224422443E84E6
:1058F00020842084408441044204C6C100003FF853
:10590000200820083FF8241022202FF822202220EF
:105910003FFC22204220442084200820C4BB0440B5
:105920007FFC04401FF010101FF010101FF0040047
:10593000FFFE11103FF8D116115011200100D0FDCB
:105940002080108010FE0100FE0021FC20243C2459
:1059500024A024A024BC24A024A04560553E8A0095
:10596000D7AA202020202020FDFC4020504093FE7C
:10597000FC40108011FC1C04F088505010201010C6
:105980001010BFAA00007FFC082008200820082073
:105990000820FFFE082008200820082010201020E2
:1059A00020204020D4B4000027FE1420144085FCA1
:1059B000450445FC150415FC2524E42024A82924CD
:1059C0002A2230A00040D2BA0080204017FE1120C9
:1059D0008120423C4244166412942348E24822301B
:1059E0002220225022880306BEA70FE008200820AC
:1059F0000FE0082008200FE000007EFC4284428473
:105A00007EFC428442847EFC4284CDF800007FFC10
:105A100040044004421452944A54442444244A54B6
:105A20004A5452946104400440144008D5BE1020EA
:105A3000082008207E20003E04204420442025FC2D
:105A4000290429040F04F104410401FC0104B0B449
:105A500010401020102013FEFA02144410401BFEC8
:105A60003088D088110810D010201050508823049E
:105A7000BCFC201020103B7C211441FE7A14A27C37
:105A80002710F97C251025FE22102A10350028FE4B
:105A90000000D0A310401020102011FEFC00108840
:105AA00031043A0254885088905010501020105001
:105AB00010881306D7BC01404120212023FE02207C
:105AC00016201BFC1220222023FCE2202220222070
:105AD00023FE22000200B4A520202020782049FCCB
